:0300000002108F5C
:0C108F00787FE4F6D8FD7581610210D670
:1012000057656C636F6D652100B5B1C7B0C8D5C6B1
:10121000DACAB1BCE4002530346400C4EA002530E9
:10122000326400D4C200C8D500CAB100B7D600C32A
:10123000EB0025326400D0C7C6DA002000000000B1
:051240000000000000A9
:08127900021000000212000542
:03000B00020FF8E9
:100FF800C0E0C0F0C083C082C0D075D008758A0038
:10100800758CDCC3E5119420E5109403500A051192
:10101800E511704705108043E51164207004E51060
:1010280064037037F510F511120CB7E536453570C5
:101038002AE53845377024E53D6406453C7006F5D9
:101048003CF53D8013C3E53D9406E53C940050080B
:10105800053DE53D7002053C754301E542701DE51F
:101068003FB53418E53EB53313E541B5360EE540D6
:10107800B53509E53845377003754201D0D0D082BF
:07108800D083D0F0D0E0326C
:10111B00D2A51214241213311214167BFF7A1279F2
:10112B00007D027F011213577F2C7E011213817FEA
:10113B00011213A2D2A9D2AF121245E511451070BC
:10114B00F7120B3AAF427E00EF7004D2A58008EF86
:10115B0064014E7002C2A5E543640170DBAE12AFB1
:10116B0013FC7D021208CBED64014C700CD2A5E58B
:10117B0013151370C3151280BFE51345127009F5D3
:10118B0043F51275130480B0ED4C70ACC2A5E5139A
:08119B00151370A4151280A0C9
:10140300758DFD858D8B438920759850D2ACD28E16
:03141300D2992249
:0E1416005389F0E4F58A758CDCC28DD28C22ED
:100B3A0078447C007D007BFF7A12793B7E007F0A35
:100B4A001208257BFF7A127909E4FDFF1213577503
:100B5A0051FF755212755316852D54852E557B00FB
:100B6A007A0079441204557B007A007944E4FD7FC7
:100B7A00011213577BFF7A12791B7D027F01121330
:100B8A00577551FF75521275531E852F548530556E
:100B9A007B007A0079441204557B007A0079447DFF
:100BAA00037F011213577BFF7A1279237D047F0199
:100BBA001213577551FF75521275531E853154859C
:100BCA0032557B007A0079441204557B007A007909
:100BDA00447D057F011213577BFF7A1279267D0621
:100BEA007F011213577551FF75521275531E8533C3
:100BFA00548534557B007A0079441204557B007A77
:100C0A000079447D017F021213577BFF7A127929FA
:100C1A007D027F021213577551FF75521275531ECA
:100C2A008535548536557B007A0079441204557B04
:100C3A00007A0079447D037F021213577BFF7A12F0
:100C4A00792C7D047F021213577551FF7552127564
:100C5A00531E8537548538557B007A00794412042F
:100C6A00557B007A0079447D057F021213577BFF7A
:100C7A007A12792F7D067F021213577551FF75522A
:100C8A0012755332853C54853D557B007A00794470
:100C9A001204557B007A0079447D067F03121357AC
:0D0CAA007BFF7A1279367D047F0302135719
:100CB700C3E538943BE5379400500A0538E53870AA
:100CC700100537800CE538643B45377004F537F578
:100CD70038E53845377015C3E536943BE53594005C
:100CE700500A0536E536701605358012E538453762
:100CF700700CE536643B45357004F535F536E53857
:100D07004537701BE53645357015C3E5349417E54F
:100D1700339400500A0534E534701C05338018E518
:100D27003845377012E5364535700CE5346417459C
:100D3700337004F533F534E53845377021E536452A
:100D470035701BE53445337015C3E532953BE53106
:100D5700953A500A0532E532702605318022E5388A
:100D67004537701CE53645357016E5344533701048
:100D7700E532B53B0BE531B53A0675310075320101
:100D8700E53845377029E53645357023E534453371
:100D9700701DE532640145317015C3E530940CE5EB
:100DA7002F9400500A0530E530702B052F8027E57A
:100DB7003845377021E5364535701BE534453370C6
:100DC70015E53264014531700DE530640C452F702F
:100DD70005F52F753001E53845377024E53645357B
:100DE700701EE53445337018E532640145317010E3
:100DF700E5306401452F7008052EE52E7002052D9C
:010E070022C8
:04137D007F057E006A
:0A138100EF1FAC0670011E4C601651
:10138B00E4F544C3E54494FA7480948050E800007B
:06139B000000054480ED96
:0113A1002229
:1013EF00C2A0D2A1D2A200000000E580339200C2B9
:0313FF00A2A200A7
:0114020022C7
:1013A2001213EF40FBC2A0C2A1C2A200008F8000B4
:0C13B200000000D2A200000000C2A22235
:1013BE001213EF40FBD2A0C2A1C2A28F8000000088
:0A13CE0000D2A200000000C2A2221B
:10133100D2A37F341213A212137D7F301213A21293
:10134100137D7F0C1213A212137D7F011213A27F52
:06135100057E000213817D
:1012DE00EFFB7A0070047F80801CEB64014A70047F
:1012EE007F908012EB64024A70047F888008EB6462
:0C12FE00034A70027F98EF2DFF0213A23C
:101357008B4E8A4F89501212DEAB4EAA4FA95012FC
:10136700084BFF60101213BE74012550F550E43589
:061377004FF54F80E42257
:1012AC0025303464002530326400D0DEB8C4CAB1B5
:1012BC00BCE400C4EA00D4C200C8D500CAB100B76F
:1012CC00D600C3EB002A002000B6A8CAB1C9E8D6E4
:0212DC00C3004D
:10128100112D07E50001001D0017003B003500008E
:101291001F0005063E0000000100000A2320000097
:0A12A100000000000000000122011F
:09142400D2B5D2B4D2B3D2B22287
:0413D800A2B4920029
:1013DC0020000D7F507E001213812000037F00221D
:0313EC007F01225C
:100F1A007551FF7552127553AC852D54852E557B2C
:100F2A00007A0079231204557B007A0079237D0127
:100F3A007F011213577551FF7552127553B1852FE0
:100F4A00548530557B007A0079231204557B007A48
:100F5A000079237D017F021213577551FF755212D2
:100F6A007553B18531548532557B007A0079231245
:100F7A0004557B007A0079237D017F03121357758C
:100F8A0051FF7552127553B18533548534557B0020
:100F9A007A0079231204557B007A0079237D057F34
:100FAA00011213577551FF7552127553B185355495
:100FBA008536557B007A0079231204557B007A0026
:100FCA0079237D057F021213577551FF75521275E9
:100FDA0053B18537548538557B007A00792312043A
:0E0FEA00557B007A0079237D057F03021357A3
:1011A300E4FFD3E5309407E52F94005018E5303081
:1011B300E0030F801BE5306402452F70047F02803B
:1011C3000F7F03800BE53030E0047F0380027F0153
:1011D300EF24FE600E14601E24027020753A007521
:1011E3003B1F22E53964017006F53A753B1D2275F4
:0C11F3003A00753B1C22753A00753B1E4B
:0111FF0022CD
:10000E007BFF7A1279B6E4FDFF1213577BFF7A124B
:10001E0079BFE4FD7F011213577551FF75521275AA
:10002E0053AC852D54852E557B007A00792312040E
:10003E00557B007A0079237D017F011213577BFFD8
:10004E007A1279C2E4FD7F021213577551FF755271
:10005E00127553B1852F548530557B007A00792364
:10006E001204557B007A0079237D017F021213570B
:10007E007BFF7A1279C5E4FD7F031213577551FF8A
:10008E007552127553B18531548532557B007A0005
:10009E0079231204557B007A0079237D017F0312A8
:1000AE0013577BFF7A1279C87D047F01121357759F
:1000BE0051FF7552127553B18533548534557B00FB
:1000CE007A0079231204557B007A0079237D057F0F
:1000DE00011213577BFF7A1279CB7D047F02121324
:1000EE00577551FF7552127553B185355485365576
:1000FE007B007A0079231204557B007A0079237DE8
:10010E00057F021213577BFF7A1279CE7D047F038F
:10011E001213577551FF7552127553B185375485A9
:10012E0038557B007A0079231204557B007A0079CA
:10013E00237D057F031213577BFF7A1279D17D033E
:10014E00AF22121357752201A2B292001213DCEFE6
:10015E0060030201E2D3E522940374809480500C74
:10016E007BFF7A1279D37D03AF228018C3E52294E8
:10017E0004748094804010E52224FDFF7BFF7A12E8
:10018E0079D37D06121357AF227E00C3EF94067407
:10019E00809480500405228009EF64064E7003752A
:1001AE002201D3E522940374809480500C7BFF7A55
:1001BE001279D17D03AF228018C3E5229404748096
:1001CE0094804010E52224FDFF7BFF7A1279D17DC9
:1001DE0006121357E52E5403700EAE2DAF2EFC7D76
:1001EE0064120876ED4C700FAE2DAF2E7C017D9013
:1001FE00120876ED4C70057539018003E4F539125D
:10020E0011A31213D8EF600302030AE52224FE6045
:10021E002414604A1460731470030202C014700335
:10022E000202E5240560030203E8052EE52E707F29
:10023E00052D0203E8E530640C452F7008F52F7587
:10024E0030010203E8C3E530940CE52F940040031F
:10025E000203E80530E5307002052F0203E8E532AF
:10026E00B53B0EE531B53A09753100753201020321
:10027E00E8C3E532953BE531953A40030203E805C4
:10028E0032E532700205310203E8E5346417453376
:10029E007007F533F5340203E8C3E5349417E533FC
:1002AE00940040030203E80534E53470020533027E
:1002BE0003E8E536643B45357007F535F536020340
:1002CE00E8C3E536943BE5359400502D0536E5360A
:1002DE00702705350203E8E538643B45377007F5AE
:1002EE0037F5380203E8C3E538943BE53794005000
:1002FE00080538E538700205370203E8A2B392000C
:10030E001213DCEF60030203EBE52224FE603314CC
:10031E00604A1460611470030203A6147003020392
:10032E00C8240560030203E8E52E452D7009752DDE
:10033E0007752EE40203E8E52E152E704C152D02DE
:10034E0003E8E5306401452F7008F52F75300C0277
:10035E0003E8E53015307002152F807EE53264011A
:10036E0045317008853A31853B32806EE532153263
:10037E00700215318064D3E5349400E53394004067
:10038E000AE534153470021533804FE53445337069
:10039E0049F5337534178042D3E5369400E535942C
:1003AE0000400AE536153670021535802DE53645C6
:1003BE00357027F53575363B8020D3E5389400E54A
:1003CE00379400400AE5381538700F1537800BE565
:1003DE003845377005F53775383B120F1AA2B592AE
:0B03EE00001213DCEF60030201562236
:100976007BFF7A1279D5E4FDFF1213577BFF7A12BB
:1009860079C87D027F011213577551FF7552127592
:1009960053B1853E54853F557B007A007923120476
:1009A600557B007A0079237D057F011213577BFF63
:1009B6007A1279CB7D027F021213577551FF755259
:1009C600127553B18540548541557B007A007923D1
:1009D6001204557B007A0079237D057F0212135796
:1009E6007522017BFF7A1279D17D06AF2212135749
:1009F600A2B292001213DCEF70307BFF7A1279D329
:100A06007D06AF22121357AF227E00EF64017004F9
:100A160005228009EF64024E70037522017BFF7A7E
:100A26001279D17D06AF221213571213D8EF7050E8
:100A3600E52224FE6027047045E53F6417453E70B5
:100A460007F53EF53F020ADEC3E53F9417E53E94FF
:100A560000502B053FE53F7025053E807BE5416450
:100A66003B45407006F540F541806DC3E541943B3A
:100A7600E540940050620541E5417002054080580A
:100A8600A2B392001213DCEF6003020B28E52224C6
:100A9600FE6025047042D3E53F9400E53E94004095
:100AA6000AE53F153F7031153E802DE53F453E7006
:100AB60027F53E753F178020D3E5419400E5409425
:100AC60000400AE5411541700F1540800BE5414590
:100AD600407005F54075413B7551FF7552127553CF
:100AE600B1853E54853F557B007A00792312045523
:100AF6007B007A0079237D057F011213577551FF1C
:100B06007552127553B18540548541557B007A0064
:100B160079231204557B007A0079237D057F021222
:100B26001357A2B592001213DCEF60030209F6D246
:040B3600A9D2AF226F
:10124500A2B592001213DCEF7021C2A9C2AF7F01D3
:101255001213A212000E7F011213A27F011213A214
:101265001209767F011213A2020E081213D8EF702D
:0412750002F542221A
:100E0800E5306401452F600BE5306402452F60032F
:100E1800020E9DE530240DFFE4352FFE7C007D0396
:100E28001208647D05120876AC06AD07E53025E0AA
:100E3800FFE52F33FEE5322FCFE5313ECF2DCF3CF6
:100E4800FEE52E2FFDE52D3EFCE52E24FFFFE52DCA
:100E580034FFFEEF7802CEC313CE13D8F92DFBEC86
:100E68003EFAE52E24FFFFE52D34FFFE7C007D646D
:100E7800120876C3EB9FFBEA9EFAE52E24FFFFE5F6
:100E88002D34FFFE7C017D90120876EF2BFFEE3AA1
:100E9800CF2418806DE5302401FFE4352FFE7C0057
:100EA8007D031208647D05120876AC06AD07E530AF
:100EB80025E0FFE52F33FEE5322FCFE5313ECF2D7C
:100EC800CF3CFEE52E2FFDE52D3EFCAE2DE52E7820
:100ED80002CEC313CE13D8F92DFBEC3EFAAE2DAFDC
:100EE8002E7C007D64120876C3EB9FFBEA9EFAAE67
:100EF8002DAF2E7C017D90120876EF2BFFEE3ACFB6
:100F08002401CF3400FE7C007D071208768C3C8DCE
:020F18003D2278
:10109B0002111BE493A3F8E493A34003F68001F23F
:1010AB0008DFF48029E493A3F85407240CC8C33356
:1010BB00C4540F4420C8834004F456800146F6DF25
:1010CB00E4800B0102040810204080901279E47E2A
:1010DB00019360BCA3FF543F30E509541FFEE4931A
:1010EB00A360010ECF54C025E060A840B8E493A3E1
:1010FB00FAE493A3F8E493A3C8C582C8CAC583CA0C
:10110B00F0A3C8C582C8CAC583CADFE9DEE780BEC3
:0112AB000042
:10075500E709F608DFFA8046E709F208DFFA803E86
:1007650088828C83E709F0A3DFFA8032E309F60873
:10077500DFFA8078E309F208DFFA807088828C83DB
:10078500E309F0A3DFFA806489828A83E0A3F6088F
:10079500DFFA805889828A83E0A3F208DFFA804C69
:1007A50080D280FA80C680D4806980F28033801040
:1007B50080A680EA809A80A880DA80E280CA8033A9
:1007C50089828A83ECFAE493A3C8C582C8CCC58321
:1007D500CCF0A3C8C582C8CCC583CCDFE9DEE780F1
:1007E5000D89828A83E493A3F608DFF9ECFAA9F070
:1007F500EDFB2289828A83ECFAE0A3C8C582C8CCC6
:10080500C583CCF0A3C8C582C8CCC583CCDFEADEDE
:10081500E880DB89828A83E493A3F208DFF980CC40
:1008250088F0EF60010E4E60C388F0ED2402B40439
:100835000050B9F582EB2402B4040050AF232345E0
:0608450082239007A57359
:10084B00BB010689828A83E0225002E722BBFE02AB
:09085B00E32289828A83E49322DE
:10086400EF8DF0A4A8F0CF8CF0A428CE8DF0A42EA8
:02087400FE2262
:10087600BC000BBE0029EF8DF084FFADF022E4CC66
:10088600F875F008EF2FFFEE33FEEC33FCEE9DEC2F
:10089600984005FCEE9DFE0FD5F0E9E4CEFD22ED75
:1008A600F8F5F0EE8420D21CFEADF075F008EF2FBF
:1008B600FFED33FD4007985006D5F0F222C398FDB0
:0508C6000FD5F0EA224D
:1008CB00C2D5EC30E709B2D5E4C39DFDE49CFCEE48
:1008DB0030E715B2D5E4C39FFFE49EFE120876C342
:1008EB00E49DFDE49CFC800312087630D507C3E43D
:0608FB009FFFE49EFE22B7
:1003F900E55D2451F8E6055D22784E300702785113
:10040900E475F00112094002084B2000EB7F2ED25F
:10041900008018EF540F2490D43440D4FF30040BDB
:10042900EF24BFB41A0050032461FFE55E60021592
:100439005E0561E5617002056030070D784EE4756F
:10044900F001120940EF02092E02130A7403D207C0
:100459008003E4C207F55D8B4E8A4F8950E4F55E4F
:10046900F560F561E55E60077F2012043480F5755B
:100479005FFFC201C200C202C203C205C206C208AE
:10048900120402FF700D3007057F00120445AF61A9
:10049900AE6022B4255FC2D5C204120402FF24D083
:1004A900B40A00501A75F00A785E30D50508B6FF0F
:1004B9000106C6A426F620D5047002D20380D924E9
:1004C900CFB41A00EF5004C2E5D204020645D201A6
:1004D90080C6D20080C0D20280BCD2D580BAD205F3
:1004E90080B47F201204342002077401B55E0040F5
:1004F900F11203F9FF12043402046DD208D2068006
:10050900951203F9FB1203F9FA1203F9F94A4B7030
:100519000679167A077BFF20022EE55E602A7E00A7
:100529008E8275830012090160060EEE655F70F018
:10053900C2D5EBC0E0EAC0E0E9C0E0EE12068CD01B
:10054900E0F9D0E0FAD0E0FB12084BFF60AAEBC05B
:10055900E0EAC0E0E9C0E0120434D0E02401F9D0B7
:10056900E03400FAD0E0FBE55F0460DCD55FD980B8
:10057900877BFF7A067988D202809C79108002797C
:1005890008C206C2088008D2D5790A8004790AC24D
:10059900D5E55F047002F55FE4FAFDFEFF1203F989
:1005A900FC7B082001131203F9FD7B1030000A12AD
:1005B90003F9FE1203F9FF7B20EC3382D592D55063
:1005C90013C3E43000069FFFE49EFEE42001039D6F
:1005D900FDE49CFCE4CBF8C201EC700CCFCECDCC91
:1005E900E824F8F870F38017C3EF33FFEE33FEED1C
:1005F90033FDEC33FCEB33FB994002FB0FD8E9EBFD
:10060900300105F8D0E0C448B201C0E00AEC4D4E13
:100619004F78207B0070C2EAB55F0040BCC0E01291
:10062900068ED0F0D0E0200104C4C0E0C4B201C0FD
:10063900F012041DD0F0D5F0EB02046D120950053B
:100649000A5305845804DB4C04D74205884F0590AA
:0F0659004405904904F043059655057A46057A05
:1006680045057A4707365004DF2D04E32E05062B8F
:1006780004E723050420071F2A049F48000004FEFE
:100688003F3F3F00790AA2D5200314300509B9106D
:10069800020404B9080104A2D5200602500104206E
:1006A80002689202B55E005034C0E07F2030031922
:1006B8007F30A20272067205500F1206E5C202C20E
:1006C80006C205C2087F30800F300503E9C0E0127A
:1006D8000434300503D0E0F9D0E0B55ECC3005171E
:1006E8007F30B9100C1204347F583004077F7880AB
:1006F80003B908031204343002057F2D0204347F45
:10070800202008F87F2B2006F322920280CF286E43
:10071800756C6C2900D2011203F93001F8C2017816
:100728005E30D50108F602049F2D50434958120344
:10073800F92403B405004001E4900731931204251D
:0D074800743A120425D203755E0402058484
:10090100BB010CE58229F582E5833AF583E02250AB
:1009110006E92582F8E622BBFE06E92582F8E222F5
:0D092100E58229F582E5833AF583E493220F
:10092E00BB010689828A83F0225002F722BBFE01A8
:02093E00F322A2
:10094000FAE6FB0808E6F925F0F618E6CA3AF622B8
:10095000D083D082F8E4937012740193700DA3A336
:1009600093F8740193F5828883E47374029368604A
:06097000EFA3A3A380DF4A
:10130A00EFB40A07740D121315740A309811A899CC
:10131A00B8130CC2983098FDA899C298B811F63043
:07132A0099FDC299F599221B
:00000001FF
