:03000000020ED01D
:0C0ED000787FE4F6D8FD75815F020F17F3
:1010A80057656C636F6D652100B5B1C7B0C8D5C60B
:1010B800DACAB1BCE4002530346400C4EA00253043
:1010C800326400D4C200C8D500CAB100B7D600C384
:0C10D800EB002000000000000000000001
:081116000210000002120005A6
:03000B00020FD50C
:100FD500C0E0C0F0C083C082C0D075D008758A005B
:100FE500758CDCC3E5119420E5109403500A0511B6
:100FF500E511701705108013E511B4200EE510B446
:101005000309751000751100120B56E540701DE5BA
:101015003DB53418E53CB53313E53FB5360EE53E31
:10102500B53509E53845377003754001E536453571
:101035007009E53845377003754101D0D0D082D0AD
:0610450083D0F0D0E03280
:100F5C00D2A51212BE1211CB1212B07BFF7A1079ED
:100F6C00A87D027F011211F17F2C7E0112121B7FD2
:100F7C000112123CD2A9D2AF121147E511451070E3
:100F8C00F7120CA7AF407E00EF7004D2A58008EFDB
:100F9C0064014E7002C2A5E541640170DBAE12AF74
:100FAC0013FC7D021208E7ED64014C7004D2A5809D
:100FBC0006ED4C7002C2A5E513151370021512E56F
:090FCC0013451270B3F54180AF2A
:10129D00758DFD858D8B438920759850D2ACD28E7E
:0312AD00D29922B1
:0E12B0005389F0E4F58A758CDCC28DD28C2255
:100CA70078427C007D007BFF7A1079DA7E007F0A2C
:100CB7001208537BFF7A1079B1E4FDFF1211F17529
:100CC7004FFF7550107551BE852D52852E537B00F1
:100CD7007A0079421204837B007A007942E4FD7F2F
:100CE700011211F17BFF7A1079C37D027F01121186
:100CF700F1754FFF7550107551C6852F52853053CA
:100D07007B007A0079421204837B007A0079427D66
:100D1700037F011211F17BFF7A1079CB7D047F01EC
:100D27001211F1754FFF7550107551C685315285F7
:100D370032537B007A0079421204837B007A007970
:100D4700427D057F011211F17BFF7A1079CE7D0676
:100D57007F011211F1754FFF7550107551C685331C
:100D6700528534537B007A0079421204837B007AE0
:100D77000079427D017F021211F17BFF7A1079D150
:100D87007D027F021211F1754FFF7550107551C624
:100D97008535528536537B007A0079421204837B6E
:100DA700007A0079427D037F021211F17BFF7A10EE
:100DB70079D47D047F021211F1754FFF75501075BC
:100DC70051C68537528538537B007A007942120421
:100DD700837B007A0079427D057F021211F17BFF48
:0B0DE7007A1079D77D067F020211F11F
:100B5600C3E538943BE5379400500A0538E538700C
:100B6600100537800CE538643B45377004F537F5DA
:100B760038E53845377015C3E536943BE5359400BE
:100B8600500A0536E536701605358012E5384537C4
:100B9600700CE536643B45357004F535F536E538B9
:100BA6004537701BE53645357015C3E5349417E5B2
:100BB600339400500A0534E534701C05338018E57B
:100BC6003845377012E5364535700CE534641745FF
:100BD600337004F533F534E53845377021E536458D
:100BE60035701BE53445337015C3E532953BE53169
:100BF600953A500A0532E532702605318022E538ED
:100C06004537701CE53645357016E53445337010AA
:100C1600E532B53B0BE531B53A0675310075320163
:100C2600E53845377029E53645357023E5344533D3
:100C3600701DE532640145317015C3E530940CE54D
:100C46002F9400500A0530E530702B052F8027E5DC
:100C56003845377021E5364535701BE53445337028
:100C660015E53264014531700DE530640C452F7091
:100C760005F52F753001E53845377024E5364535DD
:100C8600701EE53445337018E53264014531701045
:100C9600E5306401452F7008052EE52E7002052DFE
:010CA600222B
:041217007F057E00D1
:0A121B00EF1FAC0670011E4C6016B8
:10122500E4F542C3E54294FA7480948050E80000E6
:061235000000054280EDFF
:01123B002290
:10128900C2A0D2A1D2A200000000E580339200C220
:03129900A2A2000E
:01129C00222F
:10123C0012128940FBC2A0C2A1C2A200008F800082
:0C124C00000000D2A200000000C2A2229C
:1012580012128940FBD2A0C2A1C2A28F8000000056
:0A12680000D2A200000000C2A22282
:1011CB00D2A37F3412123C1212177F3012123C1230
:1011DB0012177F0C12123C1212177F0112123C7F56
:0611EB00057E0002121B4C
:10117800EFFB7A0070047F80801CEB64014A7004E6
:101188007F908012EB64024A70047F888008EB64C9
:0C119800034A70027F98EF2DFF02123C0A
:1011F1008B4C8A4D894E121178AB4CAA4DA94E12D7
:101201000879FF60101212587401254EF54EE4352D
:061211004DF54D80E422C2
:1010E40025303464002530326400D0DEB8C4CAB17F
:1010F400BCE400C4EA00D4C200C8D500CAB100B739
:10110400D600C3EB002A002000B6A8CAB1C9E8D6AD
:02111400C30016
:10111E000F2D07E4000C001F0017003B00350100E7
:10112E001F063C0001000000000A23200000000002
:08113E00000000000001220185
:0912BE00D2B5D2B4D2B3D2B222EF
:04127200A2B4920090
:1012760020000D7F507E0012121B2000037F0022EB
:031286007F0122C3
:100DF200754FFF7550107551E4852D52852E537B2A
:100E0200007A0079231204837B007A0079237D0122
:100E12007F011211F1754FFF7550107551E9852F41
:100E2200528530537B007A0079231204837B007A47
:100E32000079237D017F021211F1754FFF75501069
:100E42007551E98531528532537B007A007923123C
:100E520004837B007A0079237D017F031211F175EF
:100E62004FFF7550107551E98533528534537B001D
:100E72007A0079231204837B007A0079237D057F2F
:100E8200011211F1754FFF7550107551E9853552F8
:100E92008536537B007A0079231204837B007A0023
:100EA20079237D057F021211F1754FFF7550107580
:100EB20051E98537528538537B007A007923120431
:0E0EC200837B007A0079237D057F030211F106
:10104B00E4FFD3E5309407E52F94005018E53030DA
:10105B00E0030F801BE5306402452F70047F028094
:10106B000F7F03800BE53030E0047F0380027F01AC
:10107B00EF24FE600E14601E24027020753A00757A
:10108B003B1F22E53964017006F53A753B1D22754D
:0C109B003A00753B1C22753A00753B1EA4
:0110A7002226
:10000E007BFF7A1079EEE4FDFF1211F17BFF7A107F
:10001E0079F7E4FD7F011211F1754FFF75501075E0
:10002E0051E4852D52852E537B007A0079231204DC
:10003E00837B007A0079237D017F011211F17BFF12
:10004E007A1079FAE4FD7F021211F1754FFF7550A7
:10005E00107551E9852F528530537B007A00792334
:10006E001204837B007A0079237D017F021211F145
:10007E007BFF7A1079FDE4FD7F031211F1754FFFBE
:10008E007550107551E98531528532537B007A00D7
:10009E0079231204837B007A0079237D017F03127A
:1000AE0011F17BFF7A1179007D047F011211F17538
:1000BE004FFF7550107551E98533528534537B00CF
:1000CE007A0079231204837B007A0079237D057FE1
:1000DE00011211F17BFF7A1179037D047F02121157
:1000EE00F1754FFF7550107551E9853552853653B0
:1000FE007B007A0079231204837B007A0079237DBA
:10010E00057F021211F17BFF7A1179067D047F03C0
:10011E001211F1754FFF7550107551E985375285E3
:10012E0038537B007A0079231204837B007A00799E
:10013E00237D057F031211F17BFF7A1179097D036F
:10014E00AF221211F1752201A2B29200121276EFB5
:10015E0060030201E2D3E522940374809480500C74
:10016E007BFF7A11790B7D03AF228018C3E52294B1
:10017E0004748094804010E52224FDFF7BFF7A11E9
:10018E00790B7D061211F1AF227E00C3EF94067437
:10019E00809480500405228009EF64064E7003752A
:1001AE002201D3E522940374809480500C7BFF7A55
:1001BE001179097D03AF228018C3E522940474805F
:1001CE0094804010E52224FDFF7BFF7A1179097D92
:1001DE00061211F1121272EF6003020308E52224D7
:1001EE00FE605114607614700302029614700302BE
:1001FE0002BE1470030202E3240560030204160516
:10020E002EE52E7002052D5403700EAE2DAF2EFC72
:10021E007D64120892ED4C700FAE2DAF2E7C017DD9
:10022E0090120892ED4C7006753901020416E4F531
:10023E0039020416E530640C452F7007F52F753022
:10024E00018013C3E530940CE52F9400500805305F
:10025E00E5307002052F12104B020416E532B53B45
:10026E000EE531B53A09753100753201020416C337
:10027E00E532953BE531953A40030204160532E529
:10028E0032702A0531020416E534641745337007BF
:10029E00F533F534020416C3E5349417E5339400B0
:1002AE0040030204160534E53470020533020416C9
:1002BE00E536643B45357007F535F536020416C351
:1002CE00E536943BE5359400502D0536E53670271E
:1002DE000535020416E538643B45377007F537F5EA
:1002EE0038020416C3E538943BE5379400500805F0
:1002FE0038E53870020537020416A2B392001212C6
:10030E0076EF6003020419E52224FE606114607A20
:10031E001470030203B21470030203D414700302A8
:10032E0003F624056003020416E52E452D700875AC
:10033E002D07752EE48008E52E152E7002152DE57D
:10034E002E5403700EAE2DAF2EFC7D64120892ED6E
:10035E004C700FAE2DAF2E7C017D90120892ED4C9D
:10036E007006753901020416E4F539020416E530FB
:10037E006401452F7007F52F75300C8008E5301598
:10038E00307002152F12104B807EE532640145311C
:10039E007008853A31853B32806EE53215327068D1
:1003AE0015318064D3E5349400E5339400400AE5BA
:1003BE0034153470021533804FE53445337049F5EA
:1003CE00337534178042D3E5369400E535940040FA
:1003DE000AE536153670021535802DE53645357031
:1003EE0027F53575363B8020D3E5389400E53794F4
:1003FE0000400AE5381538700F1537800BE5384583
:10040E00377005F53775383B120DF2A2B592001212
:09041E001276EF60030201562280
:100992007BFF7A11790DE4FDFF1211F17BFF7A11D1
:1009A20079007D027F011211F1754FFF75501075AC
:1009B20051E9853C52853D537B007A00792312042C
:1009C200837B007A0079237D057F011211F17BFF81
:1009D2007A1179037D027F021211F1754FFF755072
:1009E200107551E9853E52853F537B007A00792389
:1009F2001204837B007A0079237D057F021211F1B4
:100A02007522017BFF7A1179097D06AF221211F15D
:100A1200A2B29200121276EF70307BFF7A11790B3C
:100A22007D06AF221211F1AF227E00EF6401700445
:100A320005228009EF64024E70037522017BFF7A62
:100A42001179097D06AF221211F1121272EF705064
:100A5200E52224FE6027047045E53D6417453C709D
:100A620007F53CF53D020AFAC3E53D9417E53C94CF
:100A720000502B053DE53D7025053C807BE53F643C
:100A82003B453E7006F53EF53F806DC3E53F943B26
:100A9200E53E94005062053FE53F7002053E8058F6
:100AA200A2B39200121276EF6003020B44E52224F5
:100AB200FE6025047042D3E53D9400E53C9400407D
:100AC2000AE53D153D7031153C802DE53D453C70F4
:100AD20027F53C753D178020D3E53F9400E53E9411
:100AE20000400AE53F153F700F153E800BE53F457C
:100AF2003E7005F53E753F3B754FFF7550107551C1
:100B0200E9853C52853D537B007A007923120483A8
:100B12007B007A0079237D057F011211F1754FFF69
:100B22007550107551E9853E52853F537B007A001E
:100B320079231204837B007A0079237D057F0212D8
:100B420011F1A2B59200121276EF6003020A12D2DC
:040B5200A9D2AF2253
:10114700A2B59200121276EF701EC2A9C2AF7F013C
:1011570012123C12000E7F0112123C7F0112123C48
:101167001209927F0102123C121272EF7002F540CF
:011177002255
:100EDC00020F5CE493A3F8E493A34003F68001F2C1
:100EEC0008DFF48029E493A3F85407240CC8C33317
:100EFC00C4540F4420C8834004F456800146F6DFE6
:100F0C00E4800B0102040810204080901116E47E4E
:100F1C00019360BCA3FF543F30E509541FFEE493DA
:100F2C00A360010ECF54C025E060A840B8E493A3A1
:100F3C00FAE493A3F8E493A3C8C582C8CAC583CACC
:100F4C00F0A3C8C582C8CAC583CADFE9DEE780BE84
:0111460000A8
:10078300E709F608DFFA8046E709F208DFFA803E58
:1007930088828C83E709F0A3DFFA8032E309F60845
:1007A300DFFA8078E309F208DFFA807088828C83AD
:1007B300E309F0A3DFFA806489828A83E0A3F60861
:1007C300DFFA805889828A83E0A3F208DFFA804C3B
:1007D30080D280FA80C680D4806980F28033801012
:1007E30080A680EA809A80A880DA80E280CA80337B
:1007F30089828A83ECFAE493A3C8C582C8CCC583F3
:10080300CCF0A3C8C582C8CCC583CCDFE9DEE780C2
:100813000D89828A83E493A3F608DFF9ECFAA9F041
:10082300EDFB2289828A83ECFAE0A3C8C582C8CC97
:10083300C583CCF0A3C8C582C8CCC583CCDFEADEB0
:10084300E880DB89828A83E493A3F208DFF980CC12
:1008530088F0EF60010E4E60C388F0ED2402B4040B
:100863000050B9F582EB2402B4040050AF232345B2
:0608730082239007D373FD
:10087900BB010689828A83E0225002E722BBFE027D
:09088900E32289828A83E49322B0
:10089200BC000BBE0029EF8DF084FFADF022E4CC4A
:1008A200F875F008EF2FFFEE33FEEC33FCEE9DEC13
:1008B200984005FCEE9DFE0FD5F0E9E4CEFD22ED59
:1008C200F8F5F0EE8420D21CFEADF075F008EF2FA3
:1008D200FFED33FD4007985006D5F0F222C398FD94
:0508E2000FD5F0EA2231
:1008E700C2D5EC30E709B2D5E4C39DFDE49CFCEE2C
:1008F70030E715B2D5E4C39FFFE49EFE120892C30A
:10090700E49DFDE49CFC800312089230D507C3E404
:060917009FFFE49EFE229A
:10042700E55B244FF8E6055B22784C300702784FEE
:10043700E475F00112095C0208792000EB7F2ED2E7
:10044700008018EF540F2490D43440D4FF30040BAD
:10045700EF24BFB41A0050032461FFE55C60021566
:100467005C055FE55F7002055E30070D784CE4754B
:10047700F00112095CEF02094A0211A47403D207C2
:100487008003E4C207F55B8B4C8A4D894EE4F55C2B
:10049700F55EF55FE55C60077F2012046280F57505
:1004A7005DFFC201C200C202C203C205C206C20882
:1004B700120430FF700D3007057F00120473AF5F21
:1004C700AE5E22B4255FC2D5C204120430FF24D029
:1004D700B40A00501A75F00A785C30D50508B6FFE3
:1004E7000106C6A426F620D5047002D20380D924BB
:1004F700CFB41A00EF5004C2E5D204020673D2014A
:1005070080C6D20080C0D20280BCD2D580BAD205C4
:1005170080B47F201204622002077401B55C00409A
:10052700F1120427FF12046202049BD208D206804C
:1005370095120427FB120427FA120427F94A4B7075
:100547000679447A077BFF20022EE55C602A7E004D
:100557008E8275830012091D60060EEE655D70F0D0
:10056700C2D5EBC0E0EAC0E0E9C0E0EE1206BAD0BF
:10057700E0F9D0E0FAD0E0FB120879FF60AAEBC0FF
:10058700E0EAC0E0E9C0E0120462D0E02401F9D05B
:10059700E03400FAD0E0FBE55D0460DCD55DD9808E
:1005A700877BFF7A0679B6D202809C791080027920
:1005B70008C206C2088008D2D5790A8004790AC21F
:1005C700D5E55D047002F55DE4FAFDFEFF12042730
:1005D700FC7B08200113120427FD7B1030000A1250
:1005E7000427FE120427FF7B20EC3382D592D550D7
:1005F70013C3E43000069FFFE49EFEE42001039D41
:10060700FDE49CFCE4CBF8C201EC700CCFCECDCC62
:10061700E824F8F870F38017C3EF33FFEE33FEEDED
:1006270033FDEC33FCEB33FB994002FB0FD8E9EBCE
:10063700300105F8D0E0C448B201C0E00AEC4D4EE5
:100647004F78207B0070C2EAB55D0040BCC0E01265
:1006570006BCD0F0D0E0200104C4C0E0C4B201C0A1
:10066700F012044BD0F0D5F0EB02049B12096C0595
:10067700385305B25805094C05054205B64F05BE66
:0F0687004405BE49051E4305C45505A84605A8F0
:100696004505A847076450050D2D05112E05342B79
:1006A600051523053220074D2A04CD480000052CE8
:1006B6003F3F3F00790AA2D5200314300509B9103F
:1006C600020404B9080104A2D52006025001042040
:1006D60002689202B55C005034C0E07F20300319F6
:1006E6007F30A20272067205500F120713C202C2B1
:1006F60006C205C2087F30800F300503E9C0E0124C
:100706000462300503D0E0F9D0E0B55CCC300517C3
:100716007F30B9100C1204627F583004077F78804E
:1007260003B908031204623002057F2D0204627FBA
:10073600202008F87F2B2006F322920280CF286E15
:10074600756C6C2900D2011204273001F8C20178B9
:100756005C30D50108F60204CD2D504349581204E9
:10076600272403B405004001E490075F9312045365
:0D077600743A120453D203755C040205B2FC
:10091D00BB010CE58229F582E5833AF583E022508F
:10092D0006E92582F8E622BBFE06E92582F8E222D9
:0D093D00E58229F582E5833AF583E49322F3
:10094A00BB010689828A83F0225002F722BBFE018C
:02095A00F32286
:10095C00FAE6FB0808E6F925F0F618E6CA3AF6229C
:10096C00D083D082F8E4937012740193700DA3A31A
:10097C0093F8740193F5828883E47374029368602E
:06098C00EFA3A3A380DF2E
:1011A400EFB40A07740D1211AF740A309811A8999C
:1011B400B8130CC2983098FDA899C298B811F630AB
:0711C40099FDC299F5992283
:00000001FF
