:03000000021041AA
:0C104100787FE4F6D8FD7581610210880C
:10122B0057656C636F6D652100B5B1C7B0C8D5C686
:10123B00DACAB1BCE4002530346400C4EA002530BE
:10124B00326400D4C200C8D500CAB100B7D600C3FF
:10125B00EB00256400D0C7C6DA00200000000000B8
:04126B00000000007F
:08126F0002100000021200054C
:03000B000211558A
:10115500C0E0C0F0C083C082C0D075D008758A00D9
:10116500758CDCC3E5119420E5109403500A051134
:10117500E511701A05108016E511B42011E510B4BB
:10118500030C751000751100120CE5120E36E542C0
:10119500701DE53FB53418E53EB53313E541B53669
:1011A5000EE540B53509E53845377003754201E56B
:1011B5003645357009E53845377003754301D0D09C
:0911C500D082D083D0F0D0E032DA
:1010CD00D2A512144B12135812143D7BFF7A1279CC
:1010DD002B7D027F0112137E7F2C7E011213A87FC0
:1010ED00011213C9D2A9D2AF1212D4E51145107055
:1010FD00F7120B68AF427E00EF7004D2A58008EFA7
:10110D0064014E7002C2A5E543640170DBAE12AFFF
:10111D0013FC7D021208F9ED64014C700CD2A5E5AB
:10112D0013151370C3151280BFE51345127009F521
:10113D0043F51275130480B0ED4C70ACC2A5E513E8
:08114D00151370A4151280A017
:10142A00758DFD858D8B438920759850D2ACD28EEF
:03143A00D2992222
:0E143D005389F0E4F58A758CDCC28DD28C22C6
:100B680078447C007D007BFF7A1279657E007F0ADD
:100B78001208537BFF7A127934E4FDFF12137E7555
:100B880051FF755212755341852D54852E557B00A2
:100B98007A0079441204837B007A007944E4FD7F6B
:100BA8000112137E7BFF7A1279467D027F011213B0
:100BB8007E7551FF755212755349852F54853055EE
:100BC8007B007A0079441204837B007A0079447DA3
:100BD800037F0112137E7BFF7A12794E7D047F0119
:100BE80012137E7551FF755212755349853154851C
:100BF80032557B007A0079441204837B007A0079AD
:100C0800447D057F0112137E7BFF7A1279517D06A0
:100C18007F0112137E7551FF755212755349853342
:100C2800548534557B007A0079441204837B007A1A
:100C38000079447D017F0212137E7BFF7A1279547A
:100C48007D027F0212137E7551FF7552127553494A
:100C58008535548536557B007A0079441204837BA8
:100C6800007A0079447D037F0212137E7BFF7A129B
:100C780079577D047F0212137E7551FF75521275E4
:100C880053498537548538557B007A0079441204D6
:100C9800837B007A0079447D057F0212137E7BFFF7
:100CA8007A12795A7D067F0212137E7551FF7552AA
:100CB8001275535D853C54853D557B007A00794417
:100CC8001204837B007A0079447D067F0312137E29
:0D0CD8007BFF7A1279607D047F0302137E9A
:100CE500C3E538943BE5379400500A0538E538707C
:100CF500100537800CE538643B45377004F537F54A
:100D050038E53845377015C3E536943BE53594002D
:100D1500500A0536E536701605358012E538453733
:100D2500700CE536643B45357004F535F536E53828
:100D35004537701BE53645357015C3E5349417E521
:100D4500339400500A0534E534701C05338018E5EA
:100D55003845377012E5364535700CE5346417456E
:100D6500337004F533F534E53845377021E53645FC
:100D750035701BE53445337015C3E532953BE531D8
:100D8500953A500A0532E532702605318022E5385C
:100D95004537701CE53645357016E534453370101A
:100DA500E532B53B0BE531B53A06753100753201D3
:100DB500E53845377029E53645357023E534453343
:100DC500701DE532640145317015C3E530940CE5BD
:100DD5002F9400500A0530E530702B052F8027E54C
:100DE5003845377021E5364535701BE53445337098
:100DF50015E53264014531700DE530640C452F7001
:100E050005F52F753001E53845377024E53645354C
:100E1500701EE53445337018E532640145317010B4
:100E2500E5306401452F7008052EE52E7002052D6D
:010E3500229A
:100E3600E53445336003020F62E53645356003024B
:100E46000F62E53845376003020F62E530640145FD
:100E56002F600BE5306402452F6003020EE6E53095
:100E6600240DFFE4352FFE7C007D031208927D05DC
:100E76001208A4AC06AD07E53025E0FFE52F33FEEA
:100E8600E5322FCFE5313ECF2DCF3CFEE52E2FFDAF
:100E9600E52D3EFCE52E24FFFFE52D34FFFEEF7821
:100EA60002CEC313CE13D8F92DFBEC3EFAE52E2461
:100EB600FFFFE52D34FFFE7C007D641208A4C3EB22
:100EC6009FFBEA9EFAE52E24FFFFE52D34FFFE7C0C
:100ED600017D901208A4EF2BFFEE3ACF2418806D07
:100EE600E5302401FFE4352FFE7C007D03120892D5
:100EF6007D051208A4AC06AD07E53025E0FFE52F19
:100F060033FEE5322FCFE5313ECF2DCF3CFEE52E29
:100F16002FFDE52D3EFCAE2DE52E7802CEC313CE79
:100F260013D8F92DFBEC3EFAAE2DAF2E7C007D6476
:100F36001208A4C3EB9FFBEA9EFAAE2DAF2E7C01EE
:100F46007D901208A4EF2BFFEE3ACF2401CF340098
:0D0F5600FE7C007D071208A48C3C8D3D221E
:0413A4007F057E0043
:0A13A800EF1FAC0670011E4C60162A
:1013B200E4F544C3E54494FA7480948050E8000054
:0613C2000000054480ED6F
:0113C8002202
:10141600C2A0D2A1D2A200000000E580339200C291
:03142600A2A2007F
:0114290022A0
:1013C90012141640FBC2A0C2A1C2A200008F800065
:0C13D900000000D2A200000000C2A2220E
:1013E50012141640FBD2A0C2A1C2A28F8000000039
:0A13F50000D2A200000000C2A222F4
:10135800D2A37F341213C91213A47F301213C912F7
:1013680013A47F0C1213C91213A47F011213C97F8F
:06137800057E000213A82F
:10130500EFFB7A0070047F80801CEB64014A700457
:101315007F908012EB64024A70047F888008EB643A
:0C132500034A70027F98EF2DFF0213C9ED
:10137E008B4E8A4F8950121305AB4EAA4FA95012AD
:10138E000879FF60101213E574012550F550E4350D
:06139E004FF54F80E42230
:1012A20025303464002530326400D0DEB8C4CAB1BF
:1012B200BCE400C4EA00D4C200C8D500CAB100B779
:1012C200D600C3EB002A002000B6A8CAB1C9E8D6EE
:0212D200C30057
:10127700112D07E50001001D0017003B003200009B
:101287001E0005063E0000000100000A23200000A2
:0A1297000000000000000001220129
:09144B00D2B5D2B4D2B3D2B22260
:0413FF00A2B4920002
:1014030020000D7F507E001213A82000037F0022CE
:031413007F012234
:100F63007551FF7552127553A2852D54852E557BED
:100F7300007A0079231204837B007A0079237D01B0
:100F83007F0112137E7551FF7552127553A7852F7A
:100F9300548530557B007A0079231204837B007AD1
:100FA3000079237D017F0212137E7551FF75521262
:100FB3007553A78531548532557B007A0079231206
:100FC30004837B007A0079237D017F0312137E75EE
:100FD30051FF7552127553A78533548534557B00E1
:100FE3007A0079231204837B007A0079237D057FBD
:100FF3000112137E7551FF7552127553A78535542F
:101003008536557B007A0079231204837B007A00AE
:1010130079237D057F0212137E7551FF7552127578
:1010230053A78537548538557B007A0079231204FA
:0E103300837B007A0079237D057F0302137E04
:1011CE00E4FFD3E5309407E52F94005018E5303056
:1011DE00E0030F801BE5306402452F70047F028010
:1011EE000F7F03800BE53030E0047F0380027F0128
:1011FE00EF24FE600E14601E24027020753A0075F6
:10120E003B1F22E53964017006F53A753B1D2275C8
:0C121E003A00753B1C22753A00753B1E1F
:01122A0022A1
:10000E007BFF7A1279ACE4FDFF12137E7BFF7A122E
:10001E0079B5E4FD7F0112137E7551FF755212758D
:10002E0053A2852D54852E557B007A007923120418
:10003E00837B007A0079237D017F0112137E7BFF83
:10004E007A1279B8E4FD7F0212137E7551FF755254
:10005E00127553A7852F548530557B007A0079236E
:10006E001204837B007A0079237D017F0212137EB6
:10007E007BFF7A1279BBE4FD7F0312137E7551FF6D
:10008E007552127553A78531548532557B007A000F
:10009E0079231204837B007A0079237D017F03127A
:1000AE00137E7BFF7A1279BE7D047F0112137E755B
:1000BE0051FF7552127553A78533548534557B0005
:1000CE007A0079231204837B007A0079237D057FE1
:1000DE000112137E7BFF7A1279C17D047F02121307
:1000EE007E7551FF7552127553A785355485365559
:1000FE007B007A0079231204837B007A0079237DBA
:10010E00057F0212137E7BFF7A1279C47D047F0372
:10011E0012137E7551FF7552127553A7853754858C
:10012E0038557B007A0079231204837B007A00799C
:10013E00237D057F0312137E7BFF7A1279C77D0321
:10014E00AF2212137E752201A2B29200121403EF97
:10015E0060030201E2D3E522940374809480500C74
:10016E007BFF7A1279C97D03AF228018C3E52294F2
:10017E0004748094804010E52224FDFF7BFF7A12E8
:10018E0079C97D0612137EAF227E00C3EF940674EA
:10019E00809480500405228009EF64064E7003752A
:1001AE002201D3E522940374809480500C7BFF7A55
:1001BE001279C77D03AF228018C3E52294047480A0
:1001CE0094804010E52224FDFF7BFF7A1279C77DD3
:1001DE000612137E1213FFEF6003020308E52224BA
:1001EE00FE605114607614700302029614700302BE
:1001FE0002BE1470030202E3240560030204160516
:10020E002EE52E7002052D5403700EAE2DAF2EFC72
:10021E007D641208A4ED4C700FAE2DAF2E7C017DC7
:10022E00901208A4ED4C7006753901020416E4F51F
:10023E0039020416E530640C452F7007F52F753022
:10024E00018013C3E530940CE52F9400500805305F
:10025E00E5307002052F1211CE020416E532B53BC1
:10026E000EE531B53A09753100753201020416C337
:10027E00E532953BE531953A40030204160532E529
:10028E0032702A0531020416E534641745337007BF
:10029E00F533F534020416C3E5349417E5339400B0
:1002AE0040030204160534E53470020533020416C9
:1002BE00E536643B45357007F535F536020416C351
:1002CE00E536943BE5359400502D0536E53670271E
:1002DE000535020416E538643B45377007F537F5EA
:1002EE0038020416C3E538943BE5379400500805F0
:1002FE0038E53870020537020416A2B392001214C4
:10030E0003EF6003020419E52224FE606114607A93
:10031E001470030203B21470030203D414700302A8
:10032E0003F624056003020416E52E452D700875AC
:10033E002D07752EE48008E52E152E7002152DE57D
:10034E002E5403700EAE2DAF2EFC7D641208A4ED5C
:10035E004C700FAE2DAF2E7C017D901208A4ED4C8B
:10036E007006753901020416E4F539020416E530FB
:10037E006401452F7007F52F75300C8008E5301598
:10038E00307002152F1211CE807EE5326401453198
:10039E007008853A31853B32806EE53215327068D1
:1003AE0015318064D3E5349400E5339400400AE5BA
:1003BE0034153470021533804FE53445337049F5EA
:1003CE00337534178042D3E5369400E535940040FA
:1003DE000AE536153670021535802DE53645357031
:1003EE0027F53575363B8020D3E5389400E53794F4
:1003FE0000400AE5381538700F1537800BE5384583
:10040E00377005F53775383B120F63A2B59200129F
:09041E001403EF600302015622F1
:1009A4007BFF7A1279CBE4FDFF12137E7BFF7A1270
:1009B40079BE7D027F0112137E7551FF7552127547
:1009C40053A7853E54853F557B007A007923120452
:1009D400837B007A0079237D057F0112137E7BFFE0
:1009E4007A1279C17D027F0212137E7551FF75520E
:1009F400127553A78540548541557B007A007923AD
:100A04001204837B007A0079237D057F0212137E12
:100A14007522017BFF7A1279C77D06AF2212137EFD
:100A2400A2B29200121403EF70307BFF7A1279C9DC
:100A34007D06AF2212137EAF227E00EF64017004A4
:100A440005228009EF64024E70037522017BFF7A50
:100A54001279C77D06AF2212137E1213FFEF705076
:100A6400E52224FE6027047045E53F6417453E7087
:100A740007F53EF53F020B0CC3E53F9417E53E94A2
:100A840000502B053FE53F7025053E807BE5416422
:100A94003B45407006F540F541806DC3E541943B0C
:100AA400E540940050620541E541700205408058DC
:100AB400A2B39200121403EF6003020B56E5222442
:100AC400FE6025047042D3E53F9400E53E94004067
:100AD4000AE53F153F7031153E802DE53F453E70D8
:100AE40027F53E753F178020D3E5419400E54094F7
:100AF40000400AE5411541700F1540800BE5414562
:100B0400407005F54075413B7551FF7552127553A0
:100B1400A7853E54853F557B007A007923120483D0
:100B24007B007A0079237D057F0112137E7551FFC6
:100B34007552127553A78540548541557B007A0040
:100B440079231204837B007A0079237D057F0212C6
:100B5400137EA2B59200121403EF6003020A24D29A
:040B6400A9D2AF2241
:1012D400A2B59200121403EF701EC2A9C2AF7F011F
:1012E4001213C912000E7F011213C97F011213C910
:1012F4001209A47F010213C91213FFEF7002F54211
:0113040022C6
:10104D000210CDE493A3F8E493A34003F68001F2DC
:10105D0008DFF48029E493A3F85407240CC8C333A4
:10106D00C4540F4420C8834004F456800146F6DF73
:10107D00E4800B010204081020408090126FE47E82
:10108D00019360BCA3FF543F30E509541FFEE49368
:10109D00A360010ECF54C025E060A840B8E493A32F
:1010AD00FAE493A3F8E493A3C8C582C8CAC583CA5A
:1010BD00F0A3C8C582C8CAC583CADFE9DEE780BE12
:0112A100004C
:10078300E709F608DFFA8046E709F208DFFA803E58
:1007930088828C83E709F0A3DFFA8032E309F60845
:1007A300DFFA8078E309F208DFFA807088828C83AD
:1007B300E309F0A3DFFA806489828A83E0A3F60861
:1007C300DFFA805889828A83E0A3F208DFFA804C3B
:1007D30080D280FA80C680D4806980F28033801012
:1007E30080A680EA809A80A880DA80E280CA80337B
:1007F30089828A83ECFAE493A3C8C582C8CCC583F3
:10080300CCF0A3C8C582C8CCC583CCDFE9DEE780C2
:100813000D89828A83E493A3F608DFF9ECFAA9F041
:10082300EDFB2289828A83ECFAE0A3C8C582C8CC97
:10083300C583CCF0A3C8C582C8CCC583CCDFEADEB0
:10084300E880DB89828A83E493A3F208DFF980CC12
:1008530088F0EF60010E4E60C388F0ED2402B4040B
:100863000050B9F582EB2402B4040050AF232345B2
:0608730082239007D373FD
:10087900BB010689828A83E0225002E722BBFE027D
:09088900E32289828A83E49322B0
:10089200EF8DF0A4A8F0CF8CF0A428CE8DF0A42E7A
:0208A200FE2234
:1008A400BC000BBE0029EF8DF084FFADF022E4CC38
:1008B400F875F008EF2FFFEE33FEEC33FCEE9DEC01
:1008C400984005FCEE9DFE0FD5F0E9E4CEFD22ED47
:1008D400F8F5F0EE8420D21CFEADF075F008EF2F91
:1008E400FFED33FD4007985006D5F0F222C398FD82
:0508F4000FD5F0EA221F
:1008F900C2D5EC30E709B2D5E4C39DFDE49CFCEE1A
:1009090030E715B2D5E4C39FFFE49EFE1208A4C3E5
:10091900E49DFDE49CFC80031208A430D507C3E4E0
:060929009FFFE49EFE2288
:10042700E55D2451F8E6055D22784E3007027851E4
:10043700E475F00112096E0208792000EB7F2ED2D5
:10044700008018EF540F2490D43440D4FF30040BAD
:10045700EF24BFB41A0050032461FFE55E60021564
:100467005E0561E5617002056030070D784EE47541
:10047700F00112096EEF02095C0213317403D2070F
:100487008003E4C207F55D8B4E8A4F8950E4F55E21
:10049700F560F561E55E60077F2012046280F575FF
:1004A7005FFFC201C200C202C203C205C206C20880
:1004B700120430FF700D3007057F00120473AF611F
:1004C700AE6022B4255FC2D5C204120430FF24D027
:1004D700B40A00501A75F00A785E30D50508B6FFE1
:1004E7000106C6A426F620D5047002D20380D924BB
:1004F700CFB41A00EF5004C2E5D204020673D2014A
:1005070080C6D20080C0D20280BCD2D580BAD205C4
:1005170080B47F201204622002077401B55E004098
:10052700F1120427FF12046202049BD208D206804C
:1005370095120427FB120427FA120427F94A4B7075
:100547000679447A077BFF20022EE55E602A7E004B
:100557008E8275830012092F60060EEE655F70F0BC
:10056700C2D5EBC0E0EAC0E0E9C0E0EE1206BAD0BF
:10057700E0F9D0E0FAD0E0FB120879FF60AAEBC0FF
:10058700E0EAC0E0E9C0E0120462D0E02401F9D05B
:10059700E03400FAD0E0FBE55F0460DCD55FD9808A
:1005A700877BFF7A0679B6D202809C791080027920
:1005B70008C206C2088008D2D5790A8004790AC21F
:1005C700D5E55F047002F55FE4FAFDFEFF1204272C
:1005D700FC7B08200113120427FD7B1030000A1250
:1005E7000427FE120427FF7B20EC3382D592D550D7
:1005F70013C3E43000069FFFE49EFEE42001039D41
:10060700FDE49CFCE4CBF8C201EC700CCFCECDCC62
:10061700E824F8F870F38017C3EF33FFEE33FEEDED
:1006270033FDEC33FCEB33FB994002FB0FD8E9EBCE
:10063700300105F8D0E0C448B201C0E00AEC4D4EE5
:100647004F78207B0070C2EAB55F0040BCC0E01263
:1006570006BCD0F0D0E0200104C4C0E0C4B201C0A1
:10066700F012044BD0F0D5F0EB02049B12097E0583
:10067700385305B25805094C05054205B64F05BE66
:0F0687004405BE49051E4305C45505A84605A8F0
:100696004505A847076450050D2D05112E05342B79
:1006A600051523053220074D2A04CD480000052CE8
:1006B6003F3F3F00790AA2D5200314300509B9103F
:1006C600020404B9080104A2D52006025001042040
:1006D60002689202B55E005034C0E07F20300319F4
:1006E6007F30A20272067205500F120713C202C2B1
:1006F60006C205C2087F30800F300503E9C0E0124C
:100706000462300503D0E0F9D0E0B55ECC300517C1
:100716007F30B9100C1204627F583004077F78804E
:1007260003B908031204623002057F2D0204627FBA
:10073600202008F87F2B2006F322920280CF286E15
:10074600756C6C2900D2011204273001F8C20178B9
:100756005E30D50108F60204CD2D504349581204E7
:10076600272403B405004001E490075F9312045365
:0D077600743A120453D203755E040205B2FA
:10092F00BB010CE58229F582E5833AF583E022507D
:10093F0006E92582F8E622BBFE06E92582F8E222C7
:0D094F00E58229F582E5833AF583E49322E1
:10095C00BB010689828A83F0225002F722BBFE017A
:02096C00F32274
:10096E00FAE6FB0808E6F925F0F618E6CA3AF6228A
:10097E00D083D082F8E4937012740193700DA3A308
:10098E0093F8740193F5828883E47374029368601C
:06099E00EFA3A3A380DF1C
:10133100EFB40A07740D12133C740A309811A8997E
:10134100B8130CC2983098FDA899C298B811F6301C
:0713510099FDC299F59922F4
:00000001FF
