:030000000210BB30
:0C10BB00787FE4F6D8FD75816102110217
:10122C0057656C636F6D652100B5B1C7B0C8D5C685
:10123C00DACAB1BCE4002530346400C4EA002530BD
:10124C00326400D4C200C8D500CAB100B7D600C3FE
:10125C00EB0025326400D0C7C6DA00200000000085
:05126C0000000000007D
:0812A50002080000020A000526
:03001B00021008C8
:10100800C0E0C0F0C083C082C0D075D000C000C0AE
:1010180001C002C003C004C005C006C007758DDC4E
:10102800758B00C3E5099464E5089400500A050926
:10103800E509700205088060E50964644508705890
:10104800F508F509120CC7E5364535702AE5384527
:10105800377024E53D6406453C7006F53CF53D8057
:1010680013C3E53D9406E53C94005008053DE53D75
:101078007002053C754301E542701DE53FB5341823
:10108800E53EB53313E541B5360EE540B53509E51E
:101098003845377003754201D007D006D005D00413
:1010A800D003D002D001D000D0D0D082D083D0F0ED
:0310B800D0E03253
:10114700D2A512142412135D1214187BFF7A127998
:101157002C7D027F011213837F2C7E011213AD7F3A
:10116700011213CED2ABD2AF121271E50945087046
:10117700F7120B4AAF427E00EF7004D2A58008EF4A
:1011870064014E7002C2A5E543640170DBAE0AAF8D
:101197000BFC7D021208DBED64014C700CD2A5E557
:1011A7000B150B70C3150A80BFE50B450A7009F5CF
:1011B70043F50A750B0480B0ED4C70ACC2A5E50B86
:0811C700150B70A4150A80A0AD
:0C141800758910758DDCE4F58BD28E22F6
:100B4A0078447C007D007BFF7A1279677E007F0AF9
:100B5A001208357BFF7A127935E4FDFF121383758B
:100B6A0051FF755212755342852D54852E557B00BF
:100B7A007A0079441204657B007A007944E4FD7FA7
:100B8A00011213837BFF7A1279477D027F011213C8
:100B9A00837551FF75521275534A852F5485305506
:100BAA007B007A0079441204657B007A0079447DDF
:100BBA00037F011213837BFF7A12794F7D047F0131
:100BCA001213837551FF75521275534A8531548534
:100BDA0032557B007A0079441204657B007A0079E9
:100BEA00447D057F011213837BFF7A1279527D06B9
:100BFA007F011213837551FF75521275534A85335B
:100C0A00548534557B007A0079441204657B007A56
:100C1A000079447D017F021213837BFF7A12795592
:100C2A007D027F021213837551FF75521275534A62
:100C3A008535548536557B007A0079441204657BE4
:100C4A00007A0079447D037F021213837BFF7A12B4
:100C5A0079587D047F021213837551FF75521275FC
:100C6A00534A8537548538557B007A0079441204F3
:100C7A00657B007A0079447D057F021213837BFF2E
:100C8A007A12795B7D067F021213837551FF7552C2
:100C9A001275535E853C54853D557B007A00794434
:100CAA001204657B007A0079447D067F0312138360
:0D0CBA007BFF7A1279627D047F03021383B1
:100CC700C3E538943BE5379400500A0538E538709A
:100CD700100537800CE538643B45377004F537F568
:100CE70038E53845377015C3E536943BE53594004C
:100CF700500A0536E536701605358012E538453752
:100D0700700CE536643B45357004F535F536E53846
:100D17004537701BE53645357015C3E5349417E53F
:100D2700339400500A0534E534701C05338018E508
:100D37003845377012E5364535700CE5346417458C
:100D4700337004F533F534E53845377021E536451A
:100D570035701BE53445337015C3E532953BE531F6
:100D6700953A500A0532E532702605318022E5387A
:100D77004537701CE53645357016E5344533701038
:100D8700E532B53B0BE531B53A06753100753201F1
:100D9700E53845377029E53645357023E534453361
:100DA700701DE532640145317015C3E530940CE5DB
:100DB7002F9400500A0530E530702B052F8027E56A
:100DC7003845377021E5364535701BE534453370B6
:100DD70015E53264014531700DE530640C452F701F
:100DE70005F52F753001E53845377024E53645356B
:100DF700701EE53445337018E532640145317010D3
:100E0700E5306401452F7008052EE52E7002052D8B
:010E170022B8
:0413A9007F057E003E
:0A13AD00EF1FAC0670011E4C601625
:1013B700E4F544C3E54494FA7480948050E800004F
:0613C7000000054480ED6A
:0113CD0022FD
:10140400C2A0D2A1D2A200000000E580339200C2A3
:03141400A2A20091
:0114170022B2
:1013CE0012140440FBC2A0C2A1C2A200008F800072
:0C13DE00000000D2A200000000C2A22209
:1013EA0012140440FBD2A0C2A1C2A28F8000000046
:0A13FA0000D2A200000000C2A222EF
:10135D00D2A37F341213CE1213A97F301213CE12E3
:10136D0013A97F0C1213CE1213A97F011213CE7F76
:06137D00057E000213AD25
:10130A00EFFB7A0070047F80801CEB64014A700452
:10131A007F908012EB64024A70047F888008EB6435
:0C132A00034A70027F98EF2DFF0213CEE3
:101383008B4E8A4F895012130AAB4EAA4FA95012A3
:10139300085BFF60101213EA74012550F550E43521
:0613A3004FF54F80E4222B
:1012D80025303464002530326400D0DEB8C4CAB189
:1012E800BCE400C4EA00D4C200C8D500CAB100B743
:1012F800D600C3EB002A002000B6A8CAB1C9E8D6B8
:02130800C30020
:1012AD00112D07E50001001D0017003B0035000062
:1012BD001F0005063E0000000100000A232000006B
:0A12CD0000000000000000012201F3
:09142400D2B5D2B4D2B3D2B22287
:04000300A2B4920011
:1000070020000D7F507E001213AD2000037F0022D9
:030017007F012244
:100F2A007551FF7552127553D8852D54852E557BF0
:100F3A00007A0079231204657B007A0079237D0107
:100F4A007F011213837551FF7552127553DD852F78
:100F5A00548530557B007A0079231204657B007A28
:100F6A000079237D017F021213837551FF75521296
:100F7A007553DD8531548532557B007A0079231209
:100F8A0004657B007A0079237D017F031213837540
:100F9A0051FF7552127553DD8533548534557B00E4
:100FAA007A0079231204657B007A0079237D057F14
:100FBA00011213837551FF7552127553DD8535542D
:100FCA008536557B007A0079231204657B007A0006
:100FDA0079237D057F021213837551FF75521275AD
:100FEA0053DD8537548538557B007A0079231204FE
:0E0FFA00657B007A0079237D057F0302138357
:1011CF00E4FFD3E5309407E52F94005018E5303055
:1011DF00E0030F801BE5306402452F70047F02800F
:1011EF000F7F03800BE53030E0047F0380027F0127
:1011FF00EF24FE600E14601E24027020753A0075F5
:10120F003B1F22E53964017006F53A753B1D2275C7
:0C121F003A00753B1C22753A00753B1E1E
:01122B0022A0
:10001E007BFF7A1279E2E4FDFF1213837BFF7A12E3
:10002E0079EBE4FD7F011213837551FF7552127542
:10003E0053D8852D54852E557B007A0079231204D2
:10004E00657B007A0079237D017F011213837BFF8C
:10005E007A1279EEE4FD7F021213837551FF755209
:10006E00127553DD852F548530557B007A00792328
:10007E001204657B007A0079237D017F02121383BF
:10008E007BFF7A1279F1E4FD7F031213837551FF22
:10009E007552127553DD8531548532557B007A00C9
:1000AE0079231204657B007A0079237D017F031288
:1000BE0013837BFF7A1279F47D047F01121383750B
:1000CE0051FF7552127553DD8533548534557B00BF
:1000DE007A0079231204657B007A0079237D057FEF
:1000EE00011213837BFF7A1279F77D047F021213BC
:1000FE00837551FF7552127553DD8535548536550E
:10010E007B007A0079231204657B007A0079237DC7
:10011E00057F021213837BFF7A1279FA7D047F0327
:10012E001213837551FF7552127553DD8537548541
:10013E0038557B007A0079231204657B007A0079AA
:10014E00237D057F031213837BFF7A1279FD7D03D6
:10015E00AF22121383752201A2B29200120007EF92
:10016E0060030201F2D3E522940374809480500C54
:10017E007BFF7A1279FF7D03AF228018C3E52294AC
:10018E0004748094804010E52224FDFF7BFF7A12D8
:10019E0079FF7D06121383AF227E00C3EF9406749F
:1001AE00809480500405228009EF64064E7003751A
:1001BE002201D3E522940374809480500C7BFF7A45
:1001CE001279FD7D03AF228018C3E522940474805A
:1001DE0094804010E52224FDFF7BFF7A1279FD7D8D
:1001EE0006121383E52E5403700EAE2DAF2EFC7D3A
:1001FE0064120886ED4C700FAE2DAF2E7C017D90F3
:10020E00120886ED4C70057539018003E4F539123C
:10021E0011CF120003EF600302031AE52224FE60E1
:10022E002414604A1460731470030202D014700315
:10023E000202F5240560030203F8052EE52E707FF9
:10024E00052D0203F8E530640C452F7008F52F7567
:10025E0030010203F8C3E530940CE52F94004003FF
:10026E000203F80530E5307002052F0203F8E5327F
:10027E00B53B0EE531B53A09753100753201020311
:10028E00F8C3E532953BE531953A40030203F80594
:10029E0032E532700205310203F8E5346417453356
:1002AE007007F533F5340203F8C3E5349417E533DC
:1002BE00940040030203F80534E53470020533025E
:1002CE0003F8E536643B45357007F535F536020320
:1002DE00F8C3E536943BE5359400502D0536E536EA
:1002EE00702705350203F8E538643B45377007F58E
:1002FE0037F5380203F8C3E538943BE537940050E0
:10030E00080538E538700205370203F8A2B39200EB
:10031E00120007EF60030203FBE52224FE60331494
:10032E00604A1460611470030203B6147003020372
:10033E00D8240560030203F8E52E452D7009752DAE
:10034E0007752EE40203F8E52E152E704C152D02BE
:10035E0003F8E5306401452F7008F52F75300C0257
:10036E0003F8E53015307002152F807EE5326401FA
:10037E0045317008853A31853B32806EE532153253
:10038E00700215318064D3E5349400E53394004057
:10039E000AE534153470021533804FE53445337059
:1003AE0049F5337534178042D3E5369400E535941C
:1003BE0000400AE536153670021535802DE53645B6
:1003CE00357027F53575363B8020D3E5389400E53A
:1003DE00379400400AE5381538700F1537800BE555
:1003EE003845377005F53775383B120F2AA2B5928E
:0B03FE0000120007EF600302016622FE
:100986007BFF7A137901E4FDFF1213837BFF7A1252
:1009960079F47D027F011213837551FF755212752A
:1009A60053DD853E54853F557B007A00792312043A
:1009B600657B007A0079237D057F011213837BFF17
:1009C6007A1279F77D027F021213837551FF7552F1
:1009D600127553DD8540548541557B007A00792395
:1009E6001204657B007A0079237D057F021213834A
:1009F6007522017BFF7A1279FD7D06AF22121383E1
:100A0600A2B29200120007EF70307BFF7A1279FFD4
:100A16007D06AF22121383AF227E00EF64017004BD
:100A260005228009EF64024E70037522017BFF7A6E
:100A36001279FD7D06AF22121383120003EF705068
:100A4600E52224FE6027047045E53F6417453E70A5
:100A560007F53EF53F020AEEC3E53F9417E53E94DF
:100A660000502B053FE53F7025053E807BE5416440
:100A76003B45407006F540F541806DC3E541943B2A
:100A8600E540940050620541E541700205408058FA
:100A9600A2B39200120007EF6003020B38E522248E
:100AA600FE6025047042D3E53F9400E53E94004085
:100AB6000AE53F153F7031153E802DE53F453E70F6
:100AC60027F53E753F178020D3E5419400E5409415
:100AD60000400AE5411541700F1540800BE5414580
:100AE600407005F54075413B7551FF7552127553BF
:100AF600DD853E54853F557B007A007923120465D7
:100B06007B007A0079237D057F011213837551FFDF
:100B16007552127553DD8540548541557B007A0028
:100B260079231204657B007A0079237D057F021202
:100B36001383A2B59200120007EF6003020A06D2E1
:040B4600A9D2AF225F
:10127100A2B59200120007EF7021C2A9C2AF7F018F
:101281001213CE12001E7F011213CE7F011213CE54
:101291001209867F011213CE020E18120003EF709D
:0412A10002F54222EE
:100E1800E5306401452F600BE5306402452F60031F
:100E2800020EADE530240DFFE4352FFE7C007D0376
:100E38001208747D05120886AC06AD07E53025E07A
:100E4800FFE52F33FEE5322FCFE5313ECF2DCF3CE6
:100E5800FEE52E2FFDE52D3EFCE52E24FFFFE52DBA
:100E680034FFFEEF7802CEC313CE13D8F92DFBEC76
:100E78003EFAE52E24FFFFE52D34FFFE7C007D645D
:100E8800120886C3EB9FFBEA9EFAE52E24FFFFE5D6
:100E98002D34FFFE7C017D90120886EF2BFFEE3A81
:100EA800CF2418806DE5302401FFE4352FFE7C0047
:100EB8007D031208747D05120886AC06AD07E5307F
:100EC80025E0FFE52F33FEE5322FCFE5313ECF2D6C
:100ED800CF3CFEE52E2FFDE52D3EFCAE2DE52E7810
:100EE80002CEC313CE13D8F92DFBEC3EFAAE2DAFCC
:100EF8002E7C007D64120886C3EB9FFBEA9EFAAE47
:100F08002DAF2E7C017D90120886EF2BFFEE3ACF95
:100F18002401CF3400FE7C007D071208868C3C8DAE
:020F28003D2268
:1010C700021147E493A3F8E493A34003F68001F2E7
:1010D70008DFF48029E493A3F85407240CC8C3332A
:1010E700C4540F4420C8834004F456800146F6DFF9
:1010F700E4800B01020408102040809012A5E47ED2
:10110700019360BCA3FF543F30E509541FFEE493ED
:10111700A360010ECF54C025E060A840B8E493A3B4
:10112700FAE493A3F8E493A3C8C582C8CAC583CADF
:10113700F0A3C8C582C8CAC583CADFE9DEE780BE97
:0112D7000016
:10076500E709F608DFFA8046E709F208DFFA803E76
:1007750088828C83E709F0A3DFFA8032E309F60863
:10078500DFFA8078E309F208DFFA807088828C83CB
:10079500E309F0A3DFFA806489828A83E0A3F6087F
:1007A500DFFA805889828A83E0A3F208DFFA804C59
:1007B50080D280FA80C680D4806980F28033801030
:1007C50080A680EA809A80A880DA80E280CA803399
:1007D50089828A83ECFAE493A3C8C582C8CCC58311
:1007E500CCF0A3C8C582C8CCC583CCDFE9DEE780E1
:1007F5000D89828A83E493A3F608DFF9ECFAA9F060
:10080500EDFB2289828A83ECFAE0A3C8C582C8CCB5
:10081500C583CCF0A3C8C582C8CCC583CCDFEADECE
:10082500E880DB89828A83E493A3F208DFF980CC30
:1008350088F0EF60010E4E60C388F0ED2402B40429
:100845000050B9F582EB2402B4040050AF232345D0
:0608550082239007B57339
:10085B00BB010689828A83E0225002E722BBFE029B
:09086B00E32289828A83E49322CE
:10087400EF8DF0A4A8F0CF8CF0A428CE8DF0A42E98
:02088400FE2252
:10088600BC000BBE0029EF8DF084FFADF022E4CC56
:10089600F875F008EF2FFFEE33FEEC33FCEE9DEC1F
:1008A600984005FCEE9DFE0FD5F0E9E4CEFD22ED65
:1008B600F8F5F0EE8420D21CFEADF075F008EF2FAF
:1008C600FFED33FD4007985006D5F0F222C398FDA0
:0508D6000FD5F0EA223D
:1008DB00C2D5EC30E709B2D5E4C39DFDE49CFCEE38
:1008EB0030E715B2D5E4C39FFFE49EFE120886C322
:1008FB00E49DFDE49CFC800312088630D507C3E41D
:06090B009FFFE49EFE22A6
:10040900E55D2451F8E6055D22784E300702785102
:10041900E475F00112095002085B2000EB7F2ED22F
:10042900008018EF540F2490D43440D4FF30040BCB
:10043900EF24BFB41A0050032461FFE55E60021582
:100449005E0561E5617002056030070D784EE4755F
:10045900F001120950EF02093E0213367403D20764
:100469008003E4C207F55D8B4E8A4F8950E4F55E3F
:10047900F560F561E55E60077F2012044480F5753B
:100489005FFFC201C200C202C203C205C206C2089E
:10049900120412FF700D3007057F00120455AF6179
:1004A900AE6022B4255FC2D5C204120412FF24D063
:1004B900B40A00501A75F00A785E30D50508B6FFFF
:1004C9000106C6A426F620D5047002D20380D924D9
:1004D900CFB41A00EF5004C2E5D204020655D20186
:1004E90080C6D20080C0D20280BCD2D580BAD205E3
:1004F90080B47F201204442002077401B55E0040D5
:10050900F1120409FF12044402047DD208D20680C4
:1005190095120409FB120409FA120409F94A4B70ED
:100529000679267A077BFF20022EE55E602A7E0087
:100539008E8275830012091160060EEE655F70F0F8
:10054900C2D5EBC0E0EAC0E0E9C0E0EE12069CD0FB
:10055900E0F9D0E0FAD0E0FB12085BFF60AAEBC03B
:10056900E0EAC0E0E9C0E0120444D0E02401F9D097
:10057900E03400FAD0E0FBE55F0460DCD55FD980A8
:10058900877BFF7A067998D202809C79108002795C
:1005990008C206C2088008D2D5790A8004790AC23D
:1005A900D5E55F047002F55FE4FAFDFEFF12040968
:1005B900FC7B08200113120409FD7B1030000A128C
:1005C9000409FE120409FF7B20EC3382D592D55031
:1005D90013C3E43000069FFFE49EFEE42001039D5F
:1005E900FDE49CFCE4CBF8C201EC700CCFCECDCC81
:1005F900E824F8F870F38017C3EF33FFEE33FEED0C
:1006090033FDEC33FCEB33FB994002FB0FD8E9EBEC
:10061900300105F8D0E0C448B201C0E00AEC4D4E03
:100629004F78207B0070C2EAB55F0040BCC0E01281
:10063900069ED0F0D0E0200104C4C0E0C4B201C0DD
:10064900F012042DD0F0D5F0EB02047D12096005FB
:100659001A5305945804EB4C04E74205984F05A03A
:0F0669004405A04905004305A655058A46058AA4
:1006780045058A4707465004EF2D04F32E05162B2F
:1006880004F723051420072F2A04AF480000050E9D
:100698003F3F3F00790AA2D5200314300509B9105D
:1006A800020404B9080104A2D5200602500104205E
:1006B80002689202B55E005034C0E07F2030031912
:1006C8007F30A20272067205500F1206F5C202C2EE
:1006D80006C205C2087F30800F300503E9C0E0126A
:1006E8000444300503D0E0F9D0E0B55ECC300517FE
:1006F8007F30B9100C1204447F583004077F78808B
:1007080003B908031204443002057F2D0204447F14
:10071800202008F87F2B2006F322920280CF286E33
:10072800756C6C2900D2011204093001F8C20178F5
:100738005E30D50108F60204AF2D50434958120423
:10074800092403B405004001E490074193120435DD
:0D075800743A120435D203755E0402059454
:10091100BB010CE58229F582E5833AF583E022509B
:1009210006E92582F8E622BBFE06E92582F8E222E5
:0D093100E58229F582E5833AF583E49322FF
:10093E00BB010689828A83F0225002F722BBFE0198
:02094E00F32292
:10095000FAE6FB0808E6F925F0F618E6CA3AF622A8
:10096000D083D082F8E4937012740193700DA3A326
:1009700093F8740193F5828883E47374029368603A
:06098000EFA3A3A380DF3A
:10133600EFB40A07740D121341740A309811A89974
:10134600B8130CC2983098FDA899C298B811F63017
:0713560099FDC299F59922EF
:00000001FF
